:400000000080002011000000050600000506000080B500AF024B034A12681A6000F0F6FABC760040FA46004010B5054C237833B9044B13B10448AFF300800123237010BD13
:400040002081FF1F00000000B01E000008B5064B1BB106480649AFF300800648036813B1054B03B1984708BD00000000B01E00002481FF1F0881FF1F0000000080B400AF1A
:4000800072B6FEE780B500AF01F04CFA044B1B889BB243F001039AB2014B1A8000BF80BD3C81FF1F80B500AF01F090F9044B1B889BB243F002039AB2014B1A8000BF80BD96
:4000C0003C81FF1F80B500AF044B1B78044B1B78DBB2184600F0C8F900BF80BD6A6500403E81FF1F80B400AF124B1B78124B1B78DBB20133DAB2104B1A700F4B1B78DBB28A
:40010000FF2B02D10C4B00221A700C4B1B78DBB20133DAB2094B1A70084B1B78DBB2FF2B02D1064B00221A7000BFBD465DF8047B704700BF666400404781FF1F4881FF1F5A
:4001400080B500AF6C4B1B786C4B1B78DBB2062B00F2CB8001A252F823F000BF7901000095010000D9010000390200008B020000A7020000E502000000F026F9604B1B88AE
:400180009BB203F00103002B03D05C4B01221A70AEE0ADE000F020F9594B1B889BB203F00203002B02D0554B02221A70544B1B889BB203F00803002B02D0504B03221A70DA
:4001C0004F4B1B889BB203F48073002B03D04B4B06221A708CE08BE000F006F9484B1B889BB203F00403002B06D1454B1B889BB203F00803002B02D0404B01221A70404BC2
:400200001B889BB203F04003002B02D03B4B05221A703B4B1B889BB203F48073002B02D0364B06221A70354B1B78DBB2022B02D000F002F95CE05BE000F0DEF8304B1B88EF
:400240009BB203F01003002B02D02C4B04221A702B4B1B889BB203F02003002B02D0274B01221A70254B1B78DBB2032B01D000F0EBF8234B1B889BB203F48073002B03D0C7
:400280001E4B06221A7033E032E000F0BDF81C4B1B889BB203F48073002B03D0174B06221A7025E024E000F0B7F8154B1B889BB203F08003002B02D0104B02221A70104B37
:4002C0001B889BB203F48073002B02D00B4B06221A700A4B1B78DBB2052B02D000F0BCF806E005E000F0A0F8FEE7FFF7C7FE00BF034B00221A8080BD666500403E81FF1F23
:400300003C81FF1F80B500AF62B6114B00221A70104801F00DF8104801F014F90F4801F0B3F80F4801F062F80E4801F005FD00F09BFF01F08BF901F09BFC01F0EBF901F00F
:400340003DFB00F0E3FC0A2000F0DAFEFBE700BF3E81FF1F41010000C500000085000000A5000000E500000080B584B000AFF871B9717A713B713A7913469B0013441B0194
:400380005B0AFB737B79012B08D1F979BA79FB7B084611460E2200F01FFC0FE0FA7B094BA3FB02139B08DBB2BA79D31ADAB2F979FB7B084611460E2200F00EFC00BF103772
:4003C000BD4680BDCDCCCCCC80B400AF00BFBD465DF8047B704700BF80B400AF00BFBD465DF8047B704700BF80B400AF00BFBD465DF8047B704700BF80B400AF00BFBD461A
:400400005DF8047B704700BF80B400AF00BFBD465DF8047B704700BF80B400AF00BFBD465DF8047B704700BF80B400AF00BFBD465DF8047B704700BF80B400AF00BFBD4600
:400440005DF8047B704700BF80B400AF00BFBD465DF8047B704700BF80B400AF00BFBD465DF8047B704700BF80B582B000AF0346FB71012000F0C6FCFB79062B4FD801A247
:4004800052F823F0A1040000B1040000CF040000D7040000E7040000FD0400000D0500000020042100F042FC1F4800F075FC35E00020032100F03AFC1C4800F06DFC012041
:4004C000032100F033FC1A4800F066FC26E0002000F038F822E00020032100F027FC154800F05AFC1AE00020032100F01FFC124800F052FC002000F079F80FE0002003212E
:4005000000F014FC0D4800F047FC07E00020032100F00CFC0A4800F03FFC00BF00BF00BF0837BD4680BD00BFB41E0000C01E0000C81E0000D41E0000E01E0000EC1E000088
:40054000F81E000080B584B000AF0346FB71244B1B78FB73234B1B78BB73FB79032B3AD801A252F823F000BF79050000A5050000B7050000C7050000BB7B00200821002235
:40058000FFF7F2FEFB7B002008210122FFF7ECFE01F094F90346DBB2012000210122FFF7E3FE17E00E4B1B78DBB2002008210122FFF7DAFE0EE00020032100F0B7FB0A4833
:4005C00000F0EAFB06E00020002101223223FFF7CBFE00BF00BF00BF1037BD4680BD00BF4781FF1F4881FF1F041F000080B483B000AF0346FB7100BF0C37BD465DF8047BB1
:40060000704700BF80B400AFFEE700BF80B586B000AF224B7B61224B3B61204B7B6135E03B691B68FB603B695B68BB603B699B683B6000237B600CE0FB681A68BB681A6043
:40064000BB680433BB60FB680433FB607B6804337B607A683B689A42EED13B69DB683B6000237B6008E0BB6800221A60BB680433BB607B6804337B607A683B689A42F2D146
:400680003B6910333B617B69013B7B617B69002BC6D101F0D5FBFFF735FEFEE7010000009023000080B582B000AF174B174A1A60174B174A126842F400721A6000237B60E2
:4006C0000FE07B68032B04D8124B7A6853F8223000E0114B114A796842F821307B6801337B607B682F2BECD90D4B1B78DAB20D4B1A700D4B094A1A6000F096F90B4B0022D6
:400700001A600837BD4680BD0CED00E00004FA0514ED00E000000000050600000080FF1FBC7600400481FF1F08ED00E00081FF1F80B582B000AF78603960786800213A68A7
:4007400001F0ADFB0837BD4680BD00BF80B584B000AFF860B9607A60F868B9687A6801F095FB1037BD4680BD80B584B000AFF860B9607A60F868B9687A6801F087FB103754
:40078000BD4680BD80B483B000AF0346FB71FEE780B487B000AF7860396000233B6100237B6126E07B699B007A6813441B68BB60BB68FB73BB6823F0FF03BB6013E03B6929
:4007C0005B003A6813441B781A46BB6813443A69520039680A4452781A703B6901333B61FB7B013BFB73FB7B002BE8D17B6901337B617B69222BD5D91C37BD465DF8047B15
:40080000704700BF80B582B000AF3C4B05221A803B4B18221A703B483B490822FFF7A4FF3A4B02221A704FF0402308221A70384B03221A70374B384A1278D2B21A70374BF7
:4008400008221A80364B41F251221A800023FB7019237B6014E0FB785B00DAB2314B1B78DBB203F00103DBB21343DBB203F00303FB704FF4F07000F007FC7B68013B7B6009
:400880007B68002B02D0FB78032BE4D17B68002B02D10320FFF776FF234B4FF480721A80214B07221A70214B00221A70204B48221A701D4B00221A701E4B02221A701E4B2C
:4008C00004221A701D4B1D4A1278D2B242F00102D2B21A701A4B1A4A1278D2B242F00302D2B21A70174B174A1278D2B262F07F02D2B21A700837BD4680BD00BF804000401C
:400900008240004000410040101F00000043004000420040A146004008010049224200402042004025420040044000400640004008400040014000400B400040A2430040D7
:40094000A1430040A043004080B483B000AF264B1B78FB71254B1B78BB71254B1B787B71244BFA7902F00702D2B21A70224BFA791209D2B21A701D4BBA7942F00302D2B242
:400980001A701B4B7A7942F00302D2B21A701B4B09221A701A4B03221A701A4B40221A70194B00221A70194B40221A70184B00221A70184B80221A70174B10221A70174B11
:4009C00002221A70164B01221A70094B7A791A70064BBA791A70134B44221A700C37BD465DF8047B704700BFCF010049F8460040F94600406E5800406F5800404D5100407D
:400A00005D5100400159004003590040095900400B590040205B0040245B0040285B00402C5B00407658004080B582B000AF72B6404B404A1278D2B242F00402D2B21A7093
:400A40000023FB7113E0FA7913465B0013445B00394A13443B603B681A683B689B889BB210461946FFF764FEFB790133FB71FB79072BE8D931483249FFF78AFE314B314A7D
:400A80001278D2B242F00202D2B21A702E4B2E4A1278D2B242F00202D2B21A702B4B2B4A1278D2B242F04002D2B21A70284B284A1278D2B242F01002D2B21A702548264905
:400AC0000822FFF751FE254825490A22FFF74CFE244825490822FFF747FE244824490822FFF742FE234824490822FFF73DFE234823490A22FFF738FE224B224A1278D2B27F
:400B000042F00802D2B21A701F4B00221A70FFF779FE1D4B80221A701C4B01221A70FFF713FF1B4809490E22FFF710FE0837BD4680BD00BFE8460040181F0000481F000005
:400B4000D41F00000350014013500140A0430040C243004002510040F4220000F0510040FC22000022510040082300004251004010230000525100401823000060510040A7
:400B800020230000224300400048004004000840B043004080B584B000AF786000F04CF9402000F02FF90023FB7309E0FB7B7A6813441B78184600F00BF9FB7B0133FB7383
:400BC000FB7B3F2BF2D900F037F9802000F01AF91037BD4680BD00BF80B584B000AFF871B9717A713B713A79234BA3FB02139B08BB733A79204BA3FB021399080B469B00FC
:400C00000B44D31A7B73BA7B7B799A4201D37B79BB73FA79BB791046194600F087F80023FB7305E0052000F0D3F8FB7B0133FB73FA7BBB7B9A42F5D3BA7B7B799A4218D218
:400C40007B7B184600F0C4F8BA7B7B79013B9A420FD20023FB7305E0002000F0B9F8FB7B0133FB73FA7B7979BB7BCB1A013B9A42F2D31037BD4680BDCDCCCCCC80B500AF08
:400C8000282000F03DFA032000F0CEF9052000F037FA032000F0C8F90F2000F031FA032000F0C2F9012000F02BFA022000F0BCF9052000F025FA062000F0A4F80E2000F0B8
:400CC000A1F82C2000F09EF8082000F09BF8012000F098F80C2000F095F8032000F092F8052000F00DFA0248FFF754FF80BD00BF2C23000080B500AF0C2000F083F8024B35
:400D000001221A7080BD00BF4081FF1F80B500AF054B1B78002B04D1FFF7B0FF024B01221A70FFF7E7FF80BD4181FF1F80B582B000AF02460B46FA71BB71FB79032B27D8E5
:400D400001A252F823F000BF590D0000670D0000750D0000830D0000BB79803BDBB2184600F050F815E0BB79403BDBB2184600F049F80EE0BB796C3BDBB2184600F042F818
:400D800007E0BB792C3BDBB2184600F03BF800E000BF0837BD4680BD80B584B000AF78600123FB737B681B78BB730BE0BB7B184600F00EF8FB7B7A6813441B78BB73FB7B04
:400DC0000133FB73BB7B002BF0D11037BD4680BD80B584B000AF0346FB7100F02DF8FB791B09FB73FB7B184600F0E2F8FB7903F00F03FB73FB7B184600F0DAF81037BD465B
:400E000080BD00BF80B584B000AF0346FB7100F013F8FB791B09FB73FB7B184600F004F9FB7903F00F03FB73FB7B184600F0FCF81037BD4680BD00BF80B582B000AF4FF4E9
:400E4000CA737B60554B554A1278D2B222F07F02D2B21A70524B1B78DBB223F00F03FB704F4BFA7842F00F02D2B21A704D4B1B78DBB223F00F03FB704A4BFA781A704A4B54
:400E80001B78DBB223F00F03FB70474BFA781A70424B424A1278D2B222F02002D2B21A703E4B3E4A1278D2B242F04002D2B21A70002000F047F9394B384A1278D2B242F054
:400EC0001002D2B21A70012000F03CF9374B1B78FB70324B314A1278D2B222F01002D2B21A70002000F02EF9FB7803F00803FB702A4B2A4A1278D2B242F01002D2B21A7078
:400F0000012000F01FF9254B244A1278D2B222F01002D2B21A70FB78002B02D10A2000F011F97B68013B7B60FB78002B02D07B68002BBDD1194B194A1278D2B222F04002A6
:400F4000D2B21A70154B154A1278D2B222F07F02D2B21A70124B124A1278D2B222F00F02D2B21A700F4B1B78DBB223F00F03FB700C4BFA7842F00F02D2B21A700A4B1B78F1
:400F8000DBB223F00F03FB70074BFA7842F00F02D2B21A700837BD4680BD00BF205100402251004023510040245100402151004080B582B000AF0346FB711A4B194A127825
:400FC000D2B242F02002D2B21A70164B154A1278D2B222F04002D2B21A70002000F0B2F8104B104A1278D2B222F00F02D2B21A700C4B0C4A1278D1B2FA790A43D2B242F0FD
:401000001002D2B21A70012000F09CF8054B054A1278D2B222F01002D2B21A700837BD4680BD00BF2051004080B582B000AF0346FB71144B134A1278D2B222F06002D2B290
:401040001A70104B0F4A1278D2B222F00F02D2B21A700C4B0B4A1278D1B2FA790A43D2B242F01002D2B21A70012000F06BF8054B044A1278D2B222F01002D2B21A70083713
:40108000BD4680BD20510040142840F2188002B4012114381149097811F0C001890904B40F4A515C04BC00BF00BF00BF88417FF5FDAF00BF00BF02BC704700BF00BF70F170
:4010C00004007FF5FCAF70470B050709EFF3108072B6704780F310887047000000480040C8100000AFF3008080B483B000AF0346FB7101BE0C37BD465DF8047B704700BF47
:4011000080B582B000AF786008E00C4B1B681846FFF7BAFF7B68A3F500437B607B68B3F5004FF2D8064B1B687A6802FB03F31846FFF7AAFF0837BD4680BD00BF1881FF1F1A
:401140001081FF1F80B582B000AF0346FB80FB88044A127802FB03F31846FFF795FF0837BD4680BD1481FF1F80B584B000AF03463960FB710F4B1B68FB60FB791F2B02D947
:401180000020FFF7B1FFFB7903F01F0310339B00FA6813441B68BB60FB7903F01F0310339B00FA6813443A681A60BB6818461037BD4680BD08ED00E080B582B000AF024634
:4011C0000B46FA71BB71BB79072B02D90020FFF78BFFFB791F2B02D90020FFF785FFFB7903F01F0303F1604303F56443BA795201D2B21A700837BD4680BD00BF80B582B0FB
:4012000000AF46F67B4000F05BF846F67B4000F073F8FFF75BFF0346FB710A4B094A1278D2B242F01002D2B21A70FB791846FFF751FF00F06FF8012000F026F80837BD4686
:4012400080BD00BF9665004080B400AF054B054A1278D2B262F07F02D2B21A70BD465DF8047B70477565004080B500AF054B1B78002B04D1FFF7C2FF024B01221A70FFF7B0
:40128000E3FF80BD4281FF1F80B483B000AF0346FB71044BFA791A700C37BD465DF8047B704700BF8665004080B400AF034B1B78DBB21846BD465DF8047B70476665004014
:4012C00080B582B000AF78600348796800F09CFD0837BD4680BD00BF2465004080B400AF044B1B6823F07F431846BD465DF8047B704700BF4465004080B582B000AF786038
:401300000348796800F080FD0837BD4680BD00BF0465004080B500AF01E0FFF7DFFFFFF7C3FF034603F00803002BF6D180BD00BF80B582B000AF786000F03CF8786800F0C5
:4013400009F8072000F018F800F028F80837BD4680BD00BF80B485B000AF7860054B1B68FB60FB6840337A681A601437BD465DF8047B704708ED00E080B483B000AF03469A
:40138000FB71054BFA795201D2B21A700C37BD465DF8047B704700BF00E400E080B400AF034B01221A60BD465DF8047B704700BF00E100E080B400AF034B01221A60BD469C
:4013C0005DF8047B704700BF80E100E080B400AF054B1B78DBB203F020035B09DBB21846BD465DF8047B70478F45004080B582B000AF786000F03CF8786800F009F80720FE
:4014000000F018F800F028F80837BD4680BD00BF80B485B000AF7860054B1B68FB60FB6870337A681A601437BD465DF8047B704708ED00E080B483B000AF0346FB71054B15
:40144000FA795201D2B21A700C37BD465DF8047B704700BF0CE400E080B400AF034B4FF480521A60BD465DF8047B704700E100E080B400AF034B4FF480521A60BD465DF811
:40148000047B704780E100E080B582B000AF786000F03CF8786800F009F8072000F018F800F028F80837BD4680BD00BF80B485B000AF7860054B1B68FB60FB6868337A685F
:4014C0001A601437BD465DF8047B704708ED00E080B483B000AF0346FB71054BFA795201D2B21A700C37BD465DF8047B704700BF0AE400E080B400AF034B4FF480621A60A7
:40150000BD465DF8047B704700E100E080B400AF034B4FF480621A60BD465DF8047B704780E100E080B400AF054B1B78DBB203F002035B08DBB21846BD465DF8047B704796
:401540008645004080B582B000AF786000F03CF8786800F009F8072000F018F800F028F80837BD4680BD00BF80B485B000AF7860054B1B68FB60FB6848337A681A60143765
:40158000BD465DF8047B704708ED00E080B483B000AF0346FB71054BFA795201D2B21A700C37BD465DF8047B704700BF02E400E080B400AF034B04221A60BD465DF8047BDB
:4015C000704700BF00E100E080B400AF034B04221A60BD465DF8047B704700BF80E100E080B582B000AF0F4800F05CF80D4800F075F8FFF76BFD0346FB710B4B0A4A1278AB
:40160000D2B242F01002D2B21A70FB791846FFF761FD00F071F8012000F028F80837BD4680BD00BFFF9E24009A65004080B400AF054B054A1278D2B262F07F02D2B21A7075
:40164000BD465DF8047B70477865004080B500AF054B1B78002B04D1FFF7C2FF024B01221A70FFF7E3FF80BD4381FF1F80B483B000AF0346FB71044BFA791A700C37BD46F3
:401680005DF8047B704700BF8A65004080B400AF034B1B78DBB21846BD465DF8047B70476A65004080B582B000AF78600348796800F0AAFB0837BD4680BD00BF28650040AB
:4016C00080B400AF044B1B6823F07F431846BD465DF8047B704700BF4865004080B582B000AF78600348796800F08EFB0837BD4680BD00BF0865004080B500AF01E0FFF78F
:40170000DFFFFFF7C3FF034603F00803002BF6D180BD00BF80B500AF054B1B78002B04D100F008F8024B01221A7000F025F880BD4481FF1F80B500AF102000F025F90420BA
:401740000721FFF739FD04200849FFF70DFD084B074A1278D2B242F00602D2B21A70082000F084F8034B00221A8080BD7D190000095900404E81FF1F80B582B000AFFFF79A
:40178000A5FC0346FB712E4B2D4A1278D2B242F00202D2B21A702B4B2A4A1278D2B242F00202D2B21A70284B274A1278D2B242F00102D2B21A70254B244A1278D2B242F002
:4017C0000102D2B21A70224B1B78BB71BB7943F00203BB71BB7923F00103BB711C4BBA791A701C4B80221A701B4B1B4A1278D2B222F04002D2B21A70174B174A1278D2B2DA
:4018000042F02002D2B21A70144B08221A70144B02221A70134B134A1278D2B242F00802D2B21A700A20FFF78DFC0F4B10221A60FB791846FFF74EFC0837BD4680BD00BF14
:40184000AB430040BB430040A1430040B14300400B5900400E5900400D59004008590040164600402F5B004080E200E080B584B000AF0346FB71FB790A2B07D00C2B02D014
:40188000082B06D008E0C423FB730BE08423FB7308E04423FB7305E0C423FB730020FFF723FC00BF044BFA7B1A70FB79184600F01BF81037BD4680BD0A59004080B400AFC7
:4018C000074B1B78DAB2074B1B889BB2DBB2D31ADBB2DBB25BB21846BD465DF8047B7047A25B00405481FF1F80B584B000AF0346FB71FB790A2B0BD00C2B02D0082B0ED00D
:4019000013E04FF48053FB604FF400637B8114E04FF48063FB604FF400737B810DE04FF48073FB6080237B8107E00023FB6000237B810020FFF7D8FB00BF0C4B00221A801E
:40194000FB6842F2107202FB03F303F5AB531C33074A82FB03121213DB17D21A054B1A607A89054B1A801037BD4680BD4C81FF1F2939535F5081FF1F5481FF1F80B400AF2E
:40198000BD465DF8047B704780B483B000AF0346FB71094B084A1278D2B2D1B2FA7922F00702D2B20A43D2B2D2B21A700C37BD465DF8047B704700BF0241004080B500AFAF
:4019C000054B1B78002B04D100F008F8024B01221A7000F025F880BD4581FF1F80B500AF102000F0F7F903200721FFF7E5FB03200849FFF7B9FB084B074A1278D2B242F0D5
:401A00000602D2B21A70082000F084F8034B00221A8080BDF91B0000015900405E81FF1F80B582B000AFFFF751FB0346FB712E4B2D4A1278D2B242F00102D2B21A702B4B46
:401A40002A4A1278D2B242F00102D2B21A70284B274A1278D2B242F00202D2B21A70254B244A1278D2B242F00202D2B21A70224B1B78BB71BB7943F00203BB71BB7923F030
:401A80000103BB711C4BBA791A701C4B80221A701B4B1B4A1278D2B222F04002D2B21A70174B174A1278D2B242F02002D2B21A70144B08221A70144B02221A70134B134AF6
:401AC0001278D2B242F00802D2B21A700A20FFF739FB0F4B08221A60FB791846FFF7FAFA0837BD4680BD00BFAB430040BB430040A1430040B1430040035900400659004043
:401B0000055900400059004014460040275B004080E200E080B584B000AF0346FB71FB790A2B07D00C2B02D0082B06D008E0C423FB730BE08423FB7308E04423FB7305E092
:401B4000C423FB730020FFF7CFFA00BF044BFA7B1A70FB79184600F005F81037BD4680BD0259004080B584B000AF0346FB71FB790A2B0BD00C2B02D0082B0ED013E04FF4A2
:401B80008053FB604FF400637B8114E04FF48063FB604FF400737B810DE04FF48073FB6080237B8107E00023FB6000237B810020FFF79AFA00BF0C4B00221A80FB6842F27A
:401BC000107202FB03F303F5AB531C33074A82FB03121213DB17D21A054B1A607A89054B1A801037BD4680BD5C81FF1F2939535F5881FF1F6081FF1F80B400AFBD465DF8C7
:401C0000047B704780B582B000AF0F4800F05CF80D4800F075F8FFF759FA0346FB710B4B0A4A1278D2B242F01002D2B21A70FB791846FFF74FFA00F071F8012000F028F868
:401C40000837BD4680BD00BFAFE901009664004080B400AF054B054A1278D2B262F07F02D2B21A70BD465DF8047B70477464004080B500AF054B1B78002B04D1FFF7C2FFBE
:401C8000024B01221A70FFF7E3FF80BD4681FF1F80B483B000AF0346FB71044BFA791A700C37BD465DF8047B704700BF8664004080B400AF034B1B78DBB21846BD465DF858
:401CC000047B70476664004080B582B000AF78600348796800F098F80837BD4680BD00BF2464004080B400AF044B1B6823F07F431846BD465DF8047B704700BF44640040E7
:401D000080B582B000AF78600348796800F07CF80837BD4680BD00BF0464004080B500AF01E0FFF7DFFFFFF7C3FF034603F00803002BF6D180BD00BF80B582B000AF7860CB
:401D400000F03CF8786800F009F8072000F018F800F028F80837BD4680BD00BF80B485B000AF7860054B1B68FB60FB6844337A681A601437BD465DF8047B704708ED00E0F7
:401D800080B483B000AF0346FB71054BFA795201D2B21A700C37BD465DF8047B704700BF01E400E080B400AF034B02221A60BD465DF8047B704700BF00E100E080B400AF1F
:401DC000034B02221A60BD465DF8047B704700BF80E100E080B483B000AF0346FB71094B084A1278D2B2D1B2FA7922F00702D2B20A43D2B2D2B21A700C37BD465DF8047B5C
:401E0000704700BF0641004080B485B000AF786039607B68FB603B68DAB2FB681A70FB6801333A68120AD2B21A70FB6802333A68120CD2B21A701437BD465DF8047B704720
:401E400070B50E4B0E4D0024ED1AAD101E46AC4204D056F8242090470134F8E700F086FA084D094B0024ED1AAD101E46AC4204D056F8242090470134F8E770BD7823000092
:401E800078230000802300007823000010B50023934203D0CC5CC4540133F9E710BD02440346934202D003F8011BFAE7704700000000000053544152542055500000000060
:401EC0004E45555452414C0053797374656D204F4B2100005052454348415247450000004348415247494E4700000000534F4654204641554C5400004841524420464155A0
:401F00004C54000044524956494E4721000000000200180102001801105100401000305100401000C0510040100000000140001000140140000800400140000A004C0140EE
:401F400000020050014020000245004003520040015B004001640040026500400203014028040140090501401F0601401707014001090140010B0140010D01402A1401407D
:401F8000131501401F1601401417014028180140071901401F1A0140151B014006400140084101400542014009430140024401400245014005460140024701400548014030
:401FC00007490140034C0140084D0140075001400251014031027D02000134027C202721860D860D8A0D9810B010405149FF4AFF4BFF4F01501852805A045B045D995F0103
:402000006040624064406540668068806A806C806E80C051C9FFCAFFCBFFCD83CE03CF01D018DA04DD09DF01E040E240E440E540E680E880EA80EC80EE8042024602480227
:402040004C0270029810D018D218E8800E01120130013E01405145EC4720482349FF4AFF4BFF4D834E034F0150185401560458045A045B045D995F0160406240644065403B
:40208000668068806A806C806E8006020C021E8046024C024D044F0156025D045E805F016601820198109E02A002C080C210D010D210D6D0D880EE04EE04E880EA2040511F
:4020C00049FF4AFF4BFF4F01501854035A045B045D095F016040624064406540668068806A806C806E80C041C9FFCAFFCBFFCD83CE03CF01D018D280DA04DB04DD99DF01BC
:40210000E040E240E440E540E680E880EA80EC80EE8041804580464048015810598074017640981099809E40A180AD80D098D208D60CE210E602EE0202011E0130013E01D4
:40214000404545EC4602480749FF4AFF4BFF4D834E034F0150185401560458045A045B045D995F016040624064406540668068806A806C806E8006400D801E8046404D04DB
:402180004F81558057405D045E805F01650285029810C010C280D080D210D6D0D880404149FF4AFF4BFF4F01501852805A045B045D995F016040624064406540668068801A
:4021C0006A806C806E80C054C9FFCAFFCBFFCD83CE03CF01D018DA04DD09DF01E040E240E440E540E680E880EA80EC80EE8041014681480174017680D091D20802010E0188
:4022000036013E40405445EC4720482349FF4AFF4BFF4D834E034F0150185401560458045A045B045D995F016040624064406540668068806A806C806E8000020201194005
:402240004101480149055101520159456340874095029E01A001C009D001D208D60BD801E210EE023388360437103B40CCF0CE100502571097409F10A604A788C020D440DF
:4022800097409F10A604A798B1022310831097409F10A798AA04C840E220EE202810CA02B010EA041B049820B020C608E8019820AB04878093109740A798E61087088F1050
:4022C000A718AF50E640E810EE401F109820C601181078208C109820AF10C608DE02E20801010B01100111011A011B011D0100FF01030000020101000100000020000020ED
:402300000000000000000000007F7F0000000000000000000000090000000000000003000200000200000000000000000000000000000000101010101010101018181818AF
:40234000181818181C1C1C1C1C1C1C1C1E1E1E1E1E1E1E1E1F1F1F1F1F1F1F1F00000000000000000000000000000000F8B500BFF8BC08BC9E4670474D000000A5060000BE
:40238000F8B500BFF8BC08BC9E46704729000000A02300000881FF1F18000000480000000000000000366E01C05D0000180000000000E02E000000000000000000000000C3
:4023C00000000000000000000000000000000000000000000000000000000000000000000000000000000000000000000000000000000000000000000000000000000000DD
:40240000000000000000000000000000000000000000000000000000000000000000000000000000000000000000000000000000000000000000000000000000000000009C
:40244000000000000000000000000000000000000000000000000000000000000000000000000000000000000000000000000000000000000000000000000000000000005C
:40248000000000000000000000000000000000000000000000000000000000000000000000000000000000000000000000000000000000000000000000000000000000001C
:0200000480007A
:0200000490006A
:0400000000004005B7
:0200000490105A
:04000000BC90ACAF55
:0200000490303A
:02000000B0CC82
:0200000490402A
:4000000000000000000000000000000000000000000000000000000000000000000000000000000000000000000000000000000000000000000000000000000000000000C0
:400040000000000000000000000000000000000000000000000000000000000000000000000000000000000000000000000000000000000000000000000000000000000080
:400080000000000000000000000000000000000000000000000000000000000000000000000000000000000000000000000000000000000000000000000000000000000040
:4000C0000000000000000000000000000000000000000000000000000000000000000000000000000000000000000000000000000000000000000000000000000000000000
:0200000490501A
:0C00000000012E12306900012E1FE135B6
:00000001FF