:4000000000800020110000008D0500008D05000080B500AF024B034A12681A6000F0BAFABC760040FA46004010B5054C237833B9044B13B10448AFF300800123237010BD41
:400040002081FF1F000000001C23000008B5064B1BB106480649AFF300800648036813B1054B03B1984708BD000000001C2300002481FF1F0881FF1F0000000080B400AF38
:400080000C4B1B78DBB2012B0ED10B4B1B78DBB20133DAB2084B1A70074B1B78DBB2052B02D9054B01221A7000BFBD465DF8047B704700BF4081FF1F3F81FF1F80B400AF85
:4000C000084B1B78DBB2002B03D1064B01221A7002E0044B00221A7000BFBD465DF8047B704700BF4081FF1F80B400AF034B00221A7000BFBD465DF8047B70474081FF1FBF
:4001000080B500AF0A4B1B78012000F09BFD094B1B78DBB2184600F0C1F8074B1B78DBB2184600F0DFF800F04BF900BF80BD00BF656500404081FF1F3E81FF1F80B400AFA0
:40014000034B1B7800BFBD465DF8047B704700BF6264004080B400AF104B1B78104B1B78012B06D90E4B1B78013BDAB20C4B1A7002E00C4B00221A600B4B1B78012B06D964
:40018000094B1B78013BDAB2074B1A7002E0074B00221A80BD465DF8047B7047656400400D81FF1F4481FF1F0F81FF1F4881FF1F80B582B000AF62B62C4B02221A702C4B3F
:4001C00000221A702B4801F07BFD2B4801F02AFD2A4801F095FF2A4801F044FF294801F0DDFF294801F0F0FE01F0B6FC01F0ECFD01F086FE00F0C0F900F09CFC012002F08B
:400200001BF8012000F01EFD204BFF221A70204BFF221A701F4BFF221A701F4B04221A701D4B0A225A701C4B04229A700F23FB71FF23BB7197F90730002B03DD97F90730AA
:400240000F2B09DDBB795B42DBB2BB71FA79BB791344DBB2FB7104E0FA79BB791344DBB2FB71642000F0ECFEE4E700BF3E81FF1F4081FF1F0101000055010000BD00000049
:40028000E90000007D0000003D0100000C81FF1F0D81FF1F0E81FF1F6081FF1F80B582B000AF0346FB710020002100F053FCFB79002B02D0012B04D007E0074800F080FC39
:4002C00007E0064800F07CFC03E0054800F078FC00BF0837BD4680BD20230000282300003023000080B582B000AF0346FB710020002100F02FFCFB79062B2DD801A252F8F0
:4003000023F000BF210300002903000031030000390300004103000049030000510300001D4800F04DFC17E01C4800F049FC13E01B4800F045FC0FE01A4800F041FC0BE029
:40034000194800F03DFC07E0184800F039FC03E0174800F035FC00BF164B1B78002B03D1154B1B78002B12D00020082100F0F2FB124800F025FC0F4B1B781B029AB20E4B32
:400380001B7813439BB29BB2184600F0B7FD00BF0837BD4680BD00BF38230000442300004C23000054230000602300006C230000782300005281FF1F5381FF1F84230000DC
:4003C00080B500AF654B1B78DBB2002B40F0C480634B1B68092B07D80120042100F0BAFB002000F09FFD34E05D4B1B68632B0ED80120042100F0AEFB594B1A68594BA3FBD5
:400400000213DB089BB2184600F08CFD21E0544B1B68B3F57A7F0ED20120032100F09AFB4F4B1A684F4BA3FB0213DB089BB2184600F078FD0DE00120022100F08BFB484B9C
:400440001A68484BA3FB0213DB089BB2184600F069FD0120052100F07DFB434800F0B0FB0120062100F076FB3D4B19683D4BA3FB0123DA0813469B0013445B00CA1A93B24E
:40048000184600F04FFD0120072100F063FB374800F096FB364B1B88092B07D801200C2100F058FB002000F03DFD34E0304B1B88632B0ED801200C2100F04CFB2C4B1A88B5
:4004C000284BA3FB0213DB089BB2184600F02AFD21E0274B1B88B3F57A7F0ED201200B2100F038FB224B1A881E4BA3FB0213DB089BB2184600F016FD0DE001200A2100F045
:4005000029FB1B4B1A88174BA3FB0213DB089BB2184600F007FD01200D2100F01BFB124800F04EFB01200E2100F014FB104B1A880C4BA3FB0213D9080B469B000B445B0043
:40054000D31A9BB2184600F0EDFC01200F2100F001FB084800F034FB80BD00BF4081FF1F4481FF1FCDCCCCCC8C230000902300004881FF1F9423000080B500AF00F0F0FEAD
:4005800000F0DCFD00F0CEFE80BD00BF80B400AFFEE700BF80B586B000AF224B7B61224B3B61204B7B6135E03B691B68FB603B695B68BB603B699B683B6000237B600CE03B
:4005C000FB681A68BB681A60BB680433BB60FB680433FB607B6804337B607A683B689A42EED13B69DB683B6000237B6008E0BB6800221A60BB680433BB607B6804337B6069
:400600007A683B689A42F2D13B6910333B617B69013B7B617B69002BC6D101F047FEFFF7C7FDFEE7010000005C2B000080B582B000AF174B174A1A60174B174A126842F44E
:4006400000721A6000237B600FE07B68032B04D8124B7A6853F8223000E0114B114A796842F821307B6801337B607B682F2BECD90D4B1B78DAB20D4B1A700D4B094A1A6063
:4006800000F03CF90B4B00221A600837BD4680BD0CED00E00004FA0514ED00E0000000008D0500000080FF1FBC7600400481FF1F08ED00E00081FF1F80B582B000AF786040
:4006C0003960786800213A6801F01FFE0837BD4680BD00BF80B584B000AFF860B9607A60F868B9687A6801F007FE1037BD4680BD80B584B000AFF860B9607A60F868B9684B
:400700007A6801F0F9FD1037BD4680BD80B483B000AF0346FB71FEE780B487B000AF7860396000233B6100237B6126E07B699B007A6813441B68BB60BB68FB73BB6823F04D
:40074000FF03BB6013E03B695B003A6813441B781A46BB6813443A69520039680A4452781A703B6901333B61FB7B013BFB73FB7B002BE8D17B6901337B617B691F2BD5D90E
:400780001C37BD465DF8047B704700BF80B582B000AF374B0B221A80364B18221A70364B40F65F121A80354B18221A70344B4EF65F221A80334B19221A70334B02221A70A2
:4007C0004FF0402308221A70304B03221A70304B304A1278D2B21A702F4B08221A802F4B41F251221A800023FB7019237B6014E0FB785B00DAB22A4B1B78DBB203F0010375
:40080000DBB21343DBB203F00303FB704FF4F07000F0DAFB7B68013B7B607B68002B02D0FB78032BE4D17B68002B02D10320FFF76DFF1C4B4FF480721A801A4B07221A7098
:40084000194B00221A70194B48221A70154B00221A70174B02221A70164B164A1278D2B242F00702D2B21A700837BD4680BD00BF8040004082400040844000408640004092
:40088000884000408A4000400043004000420040A14600400801004922420040204200402542004004400040064000400840004001400040A243004080B483B000AF0B4B17
:4008C0001B78FB710A4BFA7902F00702D2B21A70084BFA791209D2B21A70074B44221A700C37BD465DF8047B704700BFCF0100496E5800406F5800407658004080B586B0C8
:4009000000AF72B6514B514A1278D2B242F00402D2B21A700023FB7513E0FA7D13465B0013445B004A4A13443B613B691A683B699B889BB210461946FFF7BEFEFB7D01331E
:40094000FB75FB7D082BE8D90023FB751CE0FA7D13469B0013445B003E4A1344FB60FB681B68BB60FB685B687B60FB681A7A5B7A1B0213437B807B88B86879681A46FFF71F
:40098000B7FEFB7D0133FB75FB7D002BDFD032483249FFF7C1FE324B314A1278D2B242F00202D2B21A702F4B2E4A1278D2B242F00202D2B21A702C4B2B4A1278D2B242F0B0
:4009C0004002D2B21A70294B284A1278D2B242F01002D2B21A70264826490822FFF788FE254826490822FFF783FE254825490822FFF77EFE244825490A22FFF779FE24480B
:400A000024490822FFF774FE234824490A22FFF76FFE234B224A1278D2B242F00802D2B21A70204B00221A70FFF7B0FE1D4B80221A701D4B01221A70FFF73EFF1B480A49D1
:400A40000E22FFF747FE1837BD4680BDE846004098230000D0230000DC2300005C2400000350014013500140A0430040C24300400251004010290000125100401829000091
:400A8000225100402029000040510040282900005251004034290000605100403C290000224300400048004004000840B043004080B500AF282000F0C3FA032000F0D4F91D
:400AC000052000F0BDFA032000F0CEF90F2000F0B7FA032000F0C8F9012000F0B1FA022000F0C2F9052000F0ABFA062000F0AAF80E2000F0A7F82C2000F0A4F8082000F004
:400B0000A1F8012000F09EF80C2000F09BF8032000F098F8052000F093FA80BD80B500AF0C2000F08FF8024B01221A7080BD00BF5481FF1F80B500AF054B1B78002B04D10D
:400B4000FFF7B6FF024B01221A70FFF7E7FF80BD5581FF1F80B582B000AF02460B46FA71BB71FB79032B27D801A252F823F000BF810B00008F0B00009D0B0000AB0B000099
:400B8000BB79803BDBB2184600F05CF815E0BB79403BDBB2184600F055F80EE0BB796C3BDBB2184600F04EF807E0BB792C3BDBB2184600F047F800E000BF0837BD4680BDA7
:400BC00080B584B000AF78600123FB737B681B78BB730BE0BB7B184600F01AF8FB7B7A6813441B78BB73FB7B0133FB73BB7B002BF0D11037BD4680BD80B582B000AF0346BE
:400C0000FB71FB79184600F003F80837BD4680BD80B584B000AF0346FB7100F02DF8FB791B09FB73FB7B184600F0E2F8FB7903F00F03FB73FB7B184600F0DAF81037BD46BF
:400C400080BD00BF80B584B000AF0346FB7100F013F8FB791B09FB73FB7B184600F004F9FB7903F00F03FB73FB7B184600F0FCF81037BD4680BD00BF80B582B000AF4FF4AB
:400C8000CA737B60554B554A1278D2B222F07F02D2B21A70524B1B78DBB223F00F03FB704F4BFA7842F00F02D2B21A704D4B1B78DBB223F00F03FB704A4BFA781A704A4B16
:400CC0001B78DBB223F00F03FB70474BFA781A70424B424A1278D2B222F02002D2B21A703E4B3E4A1278D2B242F04002D2B21A70002000F0C7F9394B384A1278D2B242F096
:400D00001002D2B21A70012000F0BCF9374B1B78FB70324B314A1278D2B222F01002D2B21A70002000F0AEF9FB7803F00803FB702A4B2A4A1278D2B242F01002D2B21A7039
:400D4000012000F09FF9254B244A1278D2B222F01002D2B21A70FB78002B02D10A2000F091F97B68013B7B60FB78002B02D07B68002BBDD1194B194A1278D2B222F0400268
:400D8000D2B21A70154B154A1278D2B222F07F02D2B21A70124B124A1278D2B222F00F02D2B21A700F4B1B78DBB223F00F03FB700C4BFA7842F00F02D2B21A700A4B1B78B3
:400DC000DBB223F00F03FB70074BFA7842F00F02D2B21A700837BD4680BD00BF205100402251004023510040245100402151004080B582B000AF0346FB711A4B194A1278E7
:400E0000D2B242F02002D2B21A70164B154A1278D2B222F04002D2B21A70002000F032F9104B104A1278D2B222F00F02D2B21A700C4B0C4A1278D1B2FA790A43D2B242F03D
:400E40001002D2B21A70012000F01CF9054B054A1278D2B222F01002D2B21A700837BD4680BD00BF2051004080B582B000AF0346FB71144B134A1278D2B222F06002D2B2D1
:400E80001A70104B0F4A1278D2B222F00F02D2B21A700C4B0B4A1278D1B2FA790A43D2B242F01002D2B21A70012000F0EBF8054B044A1278D2B222F01002D2B21A70083755
:400EC000BD4680BD2051004080B582B000AF0346FB71FB791B09DBB2074AD35C1846FFF78BFEFB7903F00F03034AD35C1846FFF783FE0837BD4680BDC829000080B582B013
:400F000000AF0346FB80FB881B0A9BB2DBB21846FFF7DAFFFB88DBB21846FFF7D5FF0837BD4680BD80B586B000AF78600A23FB75FB7D07F118010B44002203F8102CFB7DA0
:400F4000013BFB751CE079681E4BA3FB0123DA0813469B0013445B00CA1AD3B23033BB75FB7D07F118010B44BA7D03F8102C7A68144BA3FB0213DB087B60FB7D013BFB751D
:400F80007B68092BDFD879680E4BA3FB0123DA0813469B0013445B00CA1AD3B23033BB75FB7D07F118010B44BA7D03F8102CFB7D07F1080213441846FFF702FE1837BD4626
:400FC00080BD00BFCDCCCCCC142840F2188002B4012114381149097811F0C001890904B40F4A515C04BC00BF00BF00BF88417FF5FDAF00BF00BF02BC704700BF00BF70F1F5
:4010000004007FF5FCAF70470B050709EFF3108072B6704780F31088704700000048004008100000AFF3008080B483B000AF0346FB7101BE0C37BD465DF8047B704700BFC7
:4010400080B582B000AF786008E00C4B1B681846FFF7BAFF7B68A3F500437B607B68B3F5004FF2D8064B1B687A6802FB03F31846FFF7AAFF0837BD4680BD00BF1C81FF1FD7
:401080001481FF1F80B582B000AF0346FB80FB88044A127802FB03F31846FFF795FF0837BD4680BD1881FF1F80B584B000AF03463960FB710F4B1B68FB60FB791F2B02D900
:4010C0000020FFF7B1FFFB7903F01F0310339B00FA6813441B68BB60FB7903F01F0310339B00FA6813443A681A60BB6818461037BD4680BD08ED00E080B582B000AF0246F5
:401100000B46FA71BB71BB79072B02D90020FFF78BFFFB791F2B02D90020FFF785FFFB7903F01F0303F1604303F56443BA795201D2B21A700837BD4680BD00BF80B582B0BB
:4011400000AF0123BB7101237B71FFF75FFF03463B714F4B4E4A1278D2B242F00102D2B21A704C4B4B4A1278D2B242F00102D2B21A703B791846FFF74DFF474B464A127817
:40118000D2B222F00102D2B21A70434B1B78DBB203F00103002B75D1404B4FF480321A6010203F49FFF780FF10200721FFF7A4FF022000F0F5F80346002B1CD1012000F0E9
:4011C00011F90346002B16D10A2003210022002300F03EF90346002B0DD1012000F09AF90346002B07D1002000F0CAF90346002B01D100237B717B79002B43D10023FB71A4
:4012000012E0FA7913465B0013449B00254A1344184600F0B3FA0346002B02D001237B7105E0FB790133FB71FB79072BE9D97B79002B27D10023FB710FE0FB791A011A4BA2
:401240001344184600F024FA0346002B02D001237B7105E0FB790133FB71FB790F2BECD97B79002B0ED141F2010000F0F5F90346002B07D1002000F0B9F90346002B01D185
:401280000023BB71BB7918460837BD4680BD00BFA6430040B643004010A0004080E100E0C9180000D8290000382A000080B582B000AF0123FB71FFF7A9FE0346BB71154B20
:4012C000144A1278D2B242F00102D2B21A70124B114A1278D2B242F00102D2B21A70BB791846FFF797FE0D4B4FF480321A600C4B0B4A126842F001021A60094B1B6803F0B3
:401300000103002B01D00023FB71FB7918460837BD4680BDA6430040B643004000E100E010A0004080B582B000AF0023FB710B4B1B78002B06D1FFF701FF0346FB71074B2D
:4013400001221A70FB79002B03D1FFF7AFFF0346FB71FB7918460837BD4680BD5681FF1F80B483B000AF0123FB710C4B0B4A1278D2B242F00102D2B21A70084B1B78DBB298
:4013800003F00103002B01D00023FB71FB7918460C37BD465DF8047B704700BF04A0004080B485B000AF0346FB800223FB73FB881BB2002B0CDB0123FB73094BFA881A8092
:4013C000074B1B889BB2FA889A4201D10023FB73FB7B18461437BD465DF8047B704700BF16A0004080B485B000AF0346FB710123FB73FB79002B11D1144B144A5278D2B29D
:4014000022F01002D2B25A70104B5B78DBB203F01003002B13D10023FB7310E00B4B0B4A5278D2B242F01002D2B25A70074B5B78DBB203F01003002B01D00023FB73FB7BA3
:4014400018461437BD465DF8047B704714A0004080B485B000AFF871B9717A713B710223FB73FB79012B4CD9FB790F2B49D8BB79012B02D9BB79072B05D93B79002B40D169
:40148000BB79012B3DD17B79032B3AD87A79FB799A4236D87A79BB799A4232D80123FB731B4B5B78BB73BB7B23F00F03BB73BA7BFB791343BB73164BBA7B5A70144B5B78EB
:4014C000DBB2BA7B9A421CD10023BB733B79002B01D00223BB73BB795B01DAB27B799B00DBB21343DAB2BB7B1343BB73084BBA7B1A70074B1B78DBB2BA7B9A4201D10023AF
:40150000FB73FB7B18461437BD465DF8047B704714A0004080B485B000AF0346FB710123FB73FB79002B11D1144B144A1278D2B222F01002D2B21A70104B1B78DBB203F051
:401540001003002B13D10023FB7310E00B4B0B4A1278D2B242F01002D2B21A70074B1B78DBB203F01003002B01D00023FB73FB7B18461437BD465DF8047B704714A0004017
:4015800080B485B000AF0346FB710123FB73FB79002B11D1144B144A1278D2B222F00102D2B21A70104B1B78DBB203F00103002B13D10023FB7310E00B4B0B4A1278D2B2A2
:4015C00042F00102D2B21A70074B1B78DBB203F00103002B01D00023FB73FB7B18461437BD465DF8047B704714A0004080B485B000AF0346FB710123FB73FB79002B11D131
:40160000144B144A1278D2B222F00202D2B21A70104B1B78DBB203F00203002B13D10023FB7310E00B4B0B4A1278D2B242F00202D2B21A70074B1B78DBB203F00203002B26
:4016400001D00023FB73FB7B18461437BD465DF8047B704710A0004080B485B000AF0346FB800123FB73094BFA881A80074B1B889BB2FA889A4201D10023FB73FB7B1846B6
:401680001437BD465DF8047B704700BF04A0004080B485B000AF78600123FB737B681B785A01354B13447A68526842F080121A607B681B785A01304B13441B6803F07F1200
:4016C0007B685B6823F080139A424DD17B681B785A01294B134410337A6892681A607B681B785A01244B134410331A687B689B689A4239D17B681B785A011F4B134414336E
:401700007A68D2681A607B681B785A011A4B134414331A687B68DB689A4225D17B681B785A01154B134418334FF0FF321A607B681B785A01104B134418331B68B3F1FF3FD5
:4017400012D17B681B785A010B4B13441C3300221A607B681B785A01074B13441C331B68002B01D10023FB73FB7B18461437BD465DF8047B704700BFA0A0004080B485B0EE
:4017800000AF78600123FB737B681B781A011B4B13441A467B685B6843F4000343F0080313607B681B781A01144B13441B68144A1A407B685B6823F4000323F008039A4295
:4017C00015D17B681B781A010C4B134404337A6892681A607B681B781A01084B134404331A687B689B689A4201D10023FB73FB7B18461437BD465DF8047B704720A0004071
:40180000F7007F0080B582B000AF0123BB802B4B10225A700023FB714AE0294B1B889AB2BB8813409BB2BA889A423BD1FB795A01244B13441B78DBB203F02003002B31D02B
:40184000BB8803F03F039BB2BA889A4226D1FB79052B21D801A252F823F000BF751800007B18000081180000871800008D1800009318000000F05AF80FE000F081F80CE004
:4018800000F0B8F809E000F0E3F806E000F004F903E000F017F900E000BF03E0FB79184600F020F8BB885B00BB80FB790133FB71FB790F2BB1D90837BD4680BD00A000403E
:4018C00008A00040A0A0004080B500AF044B5B78DBB203F01003002B01D0FFF793FF80BD00A0004080B483B000AF0346FB71FB795A010D4B13441B78DBB203F00103002BBB
:401900000DD0FB795A01084B1344FA795101064A0A441278D2B242F00102D2B21A700C37BD465DF8047B7047A0A0004080B400AF104BDB7BDBB21B019AB20E4B9B7BDBB2C7
:4019400013439BB29AB20C4B1A800C4BA0221A700A4B20229A70094B20225A70054B054A1278D2B242F00102D2B21A70BD465DF8047B7047A0A000404A81FF1F6481FF1FF9
:4019800080B483B000AF174BDB7BDBB21A06154B9B7BDBB21B041A43124B5B7BDBB21B021A43104B1B7BDBB213437B600E4B7A681A600D4B1A680D4BA3FB02139A090A4BB2
:4019C0001A600B4B64221A70064B064A1278D2B242F00102D2B21A700C37BD465DF8047B704700BFC0A000404481FF1FD34D62100D81FF1F80B400AF114B5B7ADBB21B0206
:401A00009AB20F4B1B7ADBB213439BB29AB20D4B1A800D4B64221A700C4B1B7843F00803DAB20A4B1A70064B054A1278D2B242F00102D2B21A70BD465DF8047B704700BFC4
:401A4000E0A000404C81FF1F0C81FF1F5281FF1F80B400AF0D4BDB7ADBB21B029AB20B4B9B7ADBB213439BB29AB2094B1A80094B64221A70054B054A1278D2B242F001027E
:401A8000D2B21A70BD465DF8047B704700A100404881FF1F0F81FF1F80B400AF074B64221A70074B064A1278D2B242F00102D2B21A70BD465DF8047B704700BF0E81FF1FE2
:401AC00020A1004080B400AF074B64221A70074B064A1278D2B242F00102D2B21A70BD465DF8047B704700BF0E81FF1F40A1004080B582B000AFFF2000F05AF8FF2000F00C
:401B000073F8FFF783FA0346FB710A4B094A1278D2B242F01002D2B21A70FB791846FFF779FA00F071F8012000F026F80837BD4680BD00BF9564004080B400AF054B054A4E
:401B40001278D2B262F07F02D2B21A70BD465DF8047B70477564004080B500AF054B1B78002B04D1FFF7C4FF024B01221A70FFF7E3FF80BD5781FF1F80B483B000AF0346EB
:401B8000FB71044BFA791A700C37BD465DF8047B704700BF8564004080B400AF034B1B78DBB21846BD465DF8047B70476564004080B483B000AF0346FB71044BFA791A7057
:401BC0000C37BD465DF8047B704700BF2564004080B400AF034B1B78DBB21846BD465DF8047B70474564004080B483B000AF0346FB71044BFA791A700C37BD465DF8047B35
:401C0000704700BF0564004080B500AF01E0FFF7DFFFFFF7C1FF034603F00803002BF6D180BD00BF80B582B000AF786000F03CF8786800F009F8072000F018F800F028F8E7
:401C40000837BD4680BD00BF80B485B000AF7860054B1B68FB60FB6840337A681A601437BD465DF8047B704708ED00E080B483B000AF0346FB71054BFA795201D2B21A7039
:401C80000C37BD465DF8047B704700BF00E400E080B400AF034B01221A60BD465DF8047B704700BF00E100E080B400AF034B01221A60BD465DF8047B704700BF80E100E098
:401CC00080B582B000AF786000F03CF8786800F009F8072000F018F800F028F80837BD4680BD00BF80B485B000AF7860054B1B68FB60FB6848337A681A601437BD465DF891
:401D0000047B704708ED00E080B483B000AF0346FB71054BFA795201D2B21A700C37BD465DF8047B704700BF02E400E080B400AF034B04221A60BD465DF8047B704700BF35
:401D400000E100E080B400AF034B04221A60BD465DF8047B704700BF80E100E080B582B000AF40F2E73000F05BF840F2E73000F073F8FFF74BF90346FB710A4B094A1278DC
:401D8000D2B242F01002D2B21A70FB791846FFF741F900F071F8012000F026F80837BD4680BD00BF9565004080B400AF054B054A1278D2B262F07F02D2B21A70BD465DF882
:401DC000047B70477465004080B500AF054B1B78002B04D1FFF7C2FF024B01221A70FFF7E3FF80BD5881FF1F80B483B000AF0346FB71044BFA791A700C37BD465DF8047BDF
:401E0000704700BF8565004080B400AF034B1B78DBB21846BD465DF8047B70476565004080B483B000AF0346FB80044BFA881A800C37BD465DF8047B704700BF486A0040F4
:401E400080B400AF034B1B889BB21846BD465DF8047B7047886A004080B483B000AF0346FB80044BFA881A800C37BD465DF8047B704700BF086A004080B500AF01E0FFF7E1
:401E8000DFFFFFF7C1FF034603F00803002BF6D180BD00BF80B582B000AF0F4800F05CF80D4800F075F8FFF7B1F80346FB710B4B0A4A1278D2B242F01002D2B21A70FB7924
:401EC0001846FFF7A7F800F071F8012000F028F80837BD4680BD00BFAFE901009264004080B400AF054B054A1278D2B262F07F02D2B21A70BD465DF8047B70477264004043
:401F000080B500AF054B1B78002B04D1FFF7C2FF024B01221A70FFF7E3FF80BD5981FF1F80B483B000AF0346FB71044BFA791A700C37BD465DF8047B704700BF826400404F
:401F400080B400AF034B1B78DBB21846BD465DF8047B70476264004080B582B000AF78600348796800F086F90837BD4680BD00BF2064004080B400AF044B1B6823F07F4309
:401F80001846BD465DF8047B704700BF4064004080B582B000AF78600348796800F06AF90837BD4680BD00BF0064004080B500AF01E0FFF7DFFFFFF7C3FF034603F00803AB
:401FC000002BF6D180BD00BF80B582B000AF786000F03CF8786800F009F8072000F018F800F028F80837BD4680BD00BF80B485B000AF7860054B1B68FB60FB6844337A68C1
:402000001A601437BD465DF8047B704708ED00E080B483B000AF0346FB71054BFA795201D2B21A700C37BD465DF8047B704700BF01E400E080B400AF034B02221A60BD4662
:402040005DF8047B704700BF00E100E080B400AF034B02221A60BD465DF8047B704700BF80E100E080B582B000AF786000F03CF8786800F009F8072000F018F800F028F8DE
:402080000837BD4680BD00BF80B485B000AF7860054B1B68FB60FB6858337A681A601437BD465DF8047B704708ED00E080B483B000AF0346FB71054BFA795201D2B21A70DD
:4020C0000C37BD465DF8047B704700BF06E400E080B400AF034B40221A60BD465DF8047B704700BF00E100E080B400AF034B40221A60BD465DF8047B704700BF80E100E0D0
:4021000080B582B000AF786000F03CF8786800F009F8072000F018F800F028F80837BD4680BD00BF80B485B000AF7860054B1B68FB60FB6854337A681A601437BD465DF840
:40214000047B704708ED00E080B483B000AF0346FB71054BFA795201D2B21A700C37BD465DF8047B704700BF05E400E080B400AF034B20221A60BD465DF8047B704700BFD2
:4021800000E100E080B400AF034B20221A60BD465DF8047B704700BF80E100E080B582B000AF786000F03CF8786800F009F8072000F018F800F028F80837BD4680BD00BF8B
:4021C00080B485B000AF7860054B1B68FB60FB685C337A681A601437BD465DF8047B704708ED00E080B483B000AF0346FB71054BFA795201D2B21A700C37BD465DF8047BBC
:40220000704700BF07E400E080B400AF034B80221A60BD465DF8047B704700BF00E100E080B400AF034B80221A60BD465DF8047B704700BF80E100E080B485B000AF0346C6
:40224000FB710B4B1B78DBB223F02003FB73084BFA795201D2B202F02002D1B2FA7B0A43D2B21A701437BD465DF8047B704700BF1051004080B485B000AF786039607B682F
:40228000FB603B68DAB2FB681A70FB6801333A68120AD2B21A70FB6802333A68120CD2B21A701437BD465DF8047B704770B50E4B0E4D0024ED1AAD101E46AC4204D056F8D0
:4022C000242090470134F8E700F036FC084D094B0024ED1AAD101E46AC4204D056F8242090470134F8E770BD442B0000442B00004C2B0000442B000010B50023934203D0D8
:40230000CC5CC4540133F9E710BD02440346934202D003F8011BFAE770470000000000004D41494E3A200000494E464F3A0000004572723A200000005354415254205550DC
:40234000000000004E45555452414C0044524956494E47005052454348415247450000004348415247494E4700000000534F4654204641554C540000484152442046415568
:402380004C5400004552523A000000002E0000005600000041000000305100401000C05100401000F0510040100000000140800200030140000D00140140000800400140E0
:4023C000000A004C0140000200500140200000008002014048290000800000000652004003640040016500405F0001402B010140230201404A0301404604014041050140E7
:402400000207014003090140150A0140120B0140020D0140331401401815014001190140031B01401040014017410140064201400543014002440140024501400346014072
:40244000014701400148014004490140014C01400A4D0140085001400251014000012024212C24902C013480820D830F850D850D0084048005040604080109010B060C6051
:402480000D041007123814561507160918841B041C841D042280240425012706280A2A102B032C042D042E80327F3480350738083B203E10404149FF4AFF4BFF4F01501825
:4024C00054405604580459045A045B045D095F016040624064406540668068806A806C806E808310890E92019504970999039B04A905AB0AAF10B201B50FB710B920BF402C
:40250000C041C9FFCAFFCBFFCD83CE03CF01D018D804D904DA04DC02DD09DF01E040E240E440E540E680E880EA80EC80EE8000080202035808080A850F8010131110124063
:4025400013041B181E102210230425102640281129202EA031043350340835243708388039183A203D203E02428246826120624063608740C00FC21FC40FCA3ECC6ECEAE99
:40258000D099D80F09020B0519041B0233013506404145EC4720482349FF4AFF4BFF4D834E034F01501852805401560459045A045B045C205D995F016040624064406540D7
:4025C000668068806A806C806E80001009080A801308181020042108224023082408272028692A043108325034403760388039183E10400C410A4220468249A84D014F04DF
:402600005120524656025D015E805F0460106601680669186A046B40704072017680800482018A809230948095089685980199809D209EE29F48A240A406A520A602A9107B
:40264000AB40AD80B308C002C20CC404CA0FCC2ECE2ED097D20CD6D0D882E280EA20000D040D0502080209020A0D0C0D0D02100112121302141215011604180D19011D0238
:402680002402261829012C0D3102320F361037013A083E403F4154095604580459045B045F01820196019B039F02A101AB03B001B703BE01C046C5ECC620C80BC9FFCAFF1E
:4026C000CBFFCF01D018D280D401D604D804D904DA04DB04DD11DF01E040E240E440E540E680E880EA80EC80EE8000580340068009080A840B800F20100212201308181075
:4027000019401E8021822201268029202E202F40300231083220334036A038C0391846804D054F205710582059485A025D055E806180634065027680850287409080911856
:402740009284982099289A209B48A006A108A502A680B520B640C01FC22EC405CAA4CC3FCE0ED080D220D6DFD889E880EA01EE089C20A801AF01040106061402160117014D
:4027800018101A202420261027022E08300332043302340835013630580459045C225F0103200A181002130818011A101B212204230828203204A002C004C206C405CA024E
:4027C000CC02E880A002B002404149FF4AFF4BFF4F01501852805A045B045D115F016040624064406540668068806A806C806E8082019201B001BE01C014C5ECC602C8071F
:40280000C9FFCAFFCBFFCD83CE03CF01D018D401D604D804DA04DB04DD11DF01E040E240E440E540E680E880EA80EC80EE8006400D021E8041024380464047804D044F01CA
:40284000564057805D045E805F016780710273808740C010C210D099D6D0D880E2109C208C209C20E2100B100D20338237123B2059405F8066088702C290CCF0CE10D480D7
:40288000D620D880E6400502320233203620571082208310894097209D409F10A782A920AB80AF10B208C020CC70D440E220E680E830EA8087909720A602A7B2B102E650B0
:4028C000A712AA02AF20EA80EE100C80C201B080EE019820B020E8019820A71287028F10A712E21098200102181078208C108D029820C008C608DE02E20A00070101080543
:4029000009010A030C0410021A0200FF01FF000002010100010000000020200000000000007F7F0000000000800010AC2C002C000000000001000000000000008000008269
:402940000200000000000000000000000018000202020D18001A000003000C0005C10A380018000000330044001A000009820600009C00030018000200000F0F00E00013DD
:40298000000008280000000032064000050EFDBC3DFFFFFF2200F008040000000000022804040404000000010000C00040011011C00100114001400100000000000000009A
:4029C00000000000000000003031323334353637383941424344454600000000040008000000200001000000080088000000000002000000080088000000000003000000E3
:402A00000800880000000000040000000800880000000000050000000800880000000000060000000800880000000000070000000800880000000000000000002800000088
:402A4000F9FF1F00000000910100000028000000F9FF1F00000000710200000028000000F9FF1F00000000310300000028000000F9FF1F00000060000400000028000000BD
:402A8000F9FF1F000000A0400500000028000000F9FF1F000000200006000000000000000000000000000000070000000000000000000000000000000800000000000000A6
:402AC000000000000000000009000000A8008000FFFFFFFF000000000A000000A8008000FFFFFFFF000000000B000000A8008000FFFFFFFF000000000C000000A800800018
:402B0000FFFFFFFF000000000D000000A8008000FFFFFFFF000000000E000000A8008000FFFFFFFF000000000F000000A8008000FFFFFFFF00000000F8B500BFF8BC08BC1F
:402B40009E4670474D0000002D060000F8B500BFF8BC08BC9E46704729000000702B00000881FF1F180000004800000000000000000000000A0A0A0A00366E01C05D000006
:402B8000180000000000E02E0000000000000000000000000000000000000000000000000000000000000000000000000000000000000000000000000000000000000000EF
:402BC00000000000000000000000000000000000000000000000000000000000000000000000000000000000000000000000000000000000000000000000000000000000D5
:402C00000000000000000000000000000000000000000000000000000000000000000000000000000000000000000000000000000000000000000000000000000000000094
:402C40000000000000000000000000000000000000000000000000000000000000000000000000000000000000000000000000000000000000000000000000000000000054
:402C80000000000000000000000000000000000000000000000000000000000000000000000000000000000000000000000000000000000000000000000000000000000014
:0200000480007A
:0200000490006A
:0400000000004005B7
:0200000490105A
:04000000BC90ACAF55
:0200000490303A
:02000000F4C04A
:0200000490402A
:4000000000000000000000000000000000000000000000000000000000000000000000000000000000000000000000000000000000000000000000000000000000000000C0
:400040000000000000000000000000000000000000000000000000000000000000000000000000000000000000000000000000000000000000000000000000000000000080
:400080000000000000000000000000000000000000000000000000000000000000000000000000000000000000000000000000000000000000000000000000000000000040
:4000C0000000000000000000000000000000000000000000000000000000000000000000000000000000000000000000000000000000000000000000000000000000000000
:0200000490501A
:0C00000000012E12306900012E2225297B
:00000001FF