:100000006FC100008AC1000088C1000086C10000E5
:1000100084C1000082C1000080C100007EC10000D8
:100020007CC100007AC1000010C3000048C300007A
:1000300074C1000072C1000070C100006EC10000F8
:100040006CC100006AC1000068C1000066C1000008
:1000500064C1000062C1000060C100005EC1000018
:100060005CC100005AC1000058C1000056C1000028
:1000700054C1000052C1000050C100004EC1000038
:100080004CC100004AC1000048C1000046C1000048
:1000900044C1000042C10000222C206D7573742001
:1000A0006265203F206F72203D0D0A00556E6B6E19
:1000B0006F776E20636F6D6D616E64202200222C5D
:1000C000206D7573742062652030206F7220310DB1
:1000D0000A00556E6B6E6F776E2076616C756520C9
:1000E00022000D0A00222C206D7573742062652099
:1000F0003020746F20370D0A00556E6B6E6F776E6F
:100100002070696E202200222C206D75737420628D
:10011000652041202D20460D0A00556E6B6E6F77CD
:100120006E20706F7274202200756E7265636F6747
:100130006E697A656420666F726D61742C2033205D
:100140006368617273206D696E2072657127640D3A
:100150000A000D0A003E20000D0A5465656E737991
:10016000205553422053657269616C204578616D5A
:10017000706C652C2053696D706C652050696E2021
:10018000436F6E74726F6C205368656C6C0D0A0D52
:100190000A4578616D706C6520436F6D6D616E64AA
:1001A000730D0A202042303F2020205265616420D8
:1001B000506F727420422C2070696E20300D0A201E
:1001C0002043323D302020577269746520506F7291
:1001D0007420432C2070696E2031204C4F570D0A3B
:1001E000202044363D312020577269746520506FBD
:1001F000727420442C2070696E203620484947488C
:100200002020284436206973204C45442070696EB4
:10021000290D0A0D0A0000010000C30212000200AD
:1002200000800243000300007C020401030904660D
:100230000214020309044E02160303090440020CCF
:100240000C03310032003300340035000000160387
:100250005500530042002000530065007200690001
:1002600061006C000000140359006F0075007200FB
:1002700020004E0061006D006500000004030904C9
:1002800009024300020100C0320904000001020219
:1002900001000524001001052401010104240206C7
:1002A000052406000107058203100040090401002F
:1002B000020A00000007050302400000070584024F
:1002C0004000001201000202000010C0167A040073
:1002D00001010203010001C11201803601813600D3
:1002E00011241FBECFEFD0E2DEBFCDBF11E0A0E0F2
:1002F000B1E0E0E6F9E000E00BBF02C007900D922C
:10030000A830B107D9F711E0A8E0B1E001C01D9213
:10031000AC30B107E1F7C8D021C372CECF93DF93E1
:10032000FC018491EF012196882319F04CD1FE0144
:10033000F8CFDF91CF910895EF92FF920F931F9323
:10034000CF93DF93EC01E62EF12CFE1410F505D1CE
:100350008F3F2FEF9207A1F08D309105D1F08A30B9
:100360009105B9F09C01205231092F35310568F70C
:100370008E010F5F1F4F888326D1F394E801E5CFEC
:10038000E9D0811102C08FEF05C05CD180FDDDCFC7
:10039000FACF8F2DDF91CF911F910F91FF90EF90AA
:1003A0000895CF93DF93EC01633018F489E291E074
:1003B00078C08881EFEBE80FE63060F0EFE9E80FF6
:1003C000E63040F08AE191E0A9DF8881FCD087E047
:1003D00091E067C029812053283020F48A818F332F
:1003E00011F508C089EF90E099DF8881ECD085EEA7
:1003F00090E057C083E0E89FF001112481E090E095
:1004000001C0880F2A95EAF7282F209591A1922301
:1004100091A390A1982311F081E301C080E3D3D090
:1004200082EE90E03EC06330A9F18D3399F58B8167
:10043000803391F483E0E89FF001112481E090E0A3
:10044000022E01C0880F0A94EAF791A1982B91A37C
:10045000809592A1982312C08133A1F483E0E89F94
:10046000F001112481E090E0022E01C0880F0A946F
:10047000EAF791A1982B91A392A1982B92A3DF91D7
:10048000CF91089582ED90E049DF8B819CD08EEB77
:1004900090E007C08CEA90E041DF888194D088E941
:1004A00090E0DF91CF913ACFCF93DF93CDB7DEB716
:1004B000A1970FB6F894DEBF0FBECDBF80E8809342
:1004C000610010926100569A5E9A2BD043D0882327
:1004D000E9F32FEF83ED90E3215080409040E1F766
:1004E00000C00000AFD080FFFDCF5AD088E591E07A
:1004F00015DF85E591E012DF60E2CE0101961CDF99
:10050000682F8F3F79F382E591E069A307DF69A146
:10051000CE01019646DFEDCF8091E80080FFFCCF51
:10052000089581E88093D70080EA8093D80086E11F
:1005300089BD09B400FEFDCF80E98093D8001092F8
:10054000E00010920B01109208018CE08093E20011
:100550007894089580910B0108959FB7F894809145
:100560000B01882369F083E08093E9002BE68091FA
:10057000E80085FD09C082FF03C02093E800F7CFA3
:100580009FBF8FEF9FEF08958091F1002091E800C9
:1005900025FD03C02BE62093E8009FBF90E008955F
:1005A00080910B01882371F08FB7F89493E09093BA
:1005B000E9002BE69091E80095FF03C02093E80046
:1005C000F9CF8FBF089590910B01992371F09FB7D8
:1005D000F89424E02093E90020910901222349F0B6
:1005E0002091E80025FD03C09FBF8FEF0895109272
:1005F00009012091E400275E34E04091E80045FDC8
:1006000012C09FBF9091E400921304C081E08093D8
:100610000901EBCF90910B01992339F39FB7F8941F
:100620003093E900EACF8093F1008091E80085FDE6
:1006300003C08AE38093E80085E080930A019FBFAE
:1006400080E008958091080108951F920F920FB6DF
:100650000F9211248F939F938091E1001092E100FB
:1006600083FF11C01092E90091E09093EB0010928B
:10067000EC0092E19093ED0098E09093F0001092DE
:100680000B011092080182FF13C080910B01882397
:1006900079F080910A01882359F0815080930A01F2
:1006A000811106C084E08093E9008AE38093E8002A
:1006B0009F918F910F900FBE0F901F9018951F92D2
:1006C0000F920FB60F9211240BB60F92EF92FF927A
:1006D0000F931F932F933F934F935F936F937F934A
:1006E0008F939F93AF93BF93EF93FF93CF93DF933A
:1006F0001F92CDB7DEB71092E9008091E80083FF2A
:1007000010C19091F1008091F1003091F1002091A1
:10071000F100E32EF12CF22A0091F1002091F1007A
:1007200010E0122B2091F1006091F10032EF309334
:10073000E800863009F046C036E086E192E0FC0130
:10074000459154914E155F0539F4FC01329645915F
:1007500054914017510721F00796315081F7E1C0BD
:10076000FC01349645915491FC013696849130E019
:10077000362B2F3F310519F010F02FEF30E02817FE
:1007800008F4822F3EEF9091E800292F2570D9F3CD
:1007900092FDCAC0982F813108F090E1FA01292F0B
:1007A000222331F064916093F10021503196F8CF0B
:1007B000490F511D891B3093E8008111E4CF90311E
:1007C00011F3B2C0853049F48EEF8093E800A4DEC7
:1007D0008E2D80688093E300A7C0893061F5911168
:1007E0007DC0E0920B011092080110920A018EEF79
:1007F0008093E80041E085ED92E04093E9009C01A0
:100800002F5F3F4FFC0154915093EB00552361F053
:10081000F90124912093EC009C012D5F3F4FFC01D6
:10082000329684918093ED004F5F453011F0C901FD
:10083000E4CF8EE171C0883049F4903809F04EC0A1
:100840006BDE80910B018093F10044C0813271F422
:10085000913A09F043C060DEE0E0F1E081918093DD
:10086000F10081E0E730F807C9F734C0803299F42D
:100870009132A1F58091E80082FFFCCFE0E0F1E049
:100880008091F100819381E0E730F807C9F78BEFA1
:100890008093E8001FC0823239F4913209F041C0E0
:1008A000E092080139DE16C0811118C0998334DE48
:1008B0009981923851F40093E9008091EB0085FB17
:1008C000882780F91092E90001C080E08093F10050
:1008D0001092F1008EEF8093E80026C0282F2D7F24
:1008E0002130F9F49230E9F4EF28D9F40F779FEF33
:1008F000900F9430B0F49EEF9093E8000093E900DD
:10090000833079F089E18093EB0081E090E0002E64
:1009100001C0880F0A94EAF78093EA001092EA0077
:1009200003C081E28093EB000F90DF91CF91FF91A4
:10093000EF91BF91AF919F918F917F916F915F9157
:100940004F913F912F911F910F91FF90EF900F903A
:100950000BBE0F900FBE0F901F901895F894FFCF0D
:0809600000E1000000000800A6
:00000001FF
